{
  "contractName": "CarbonFootprintTracking",
  "abi": [
    {
      "inputs": [],
      "stateMutability": "nonpayable",
      "type": "constructor"
    },
    {
      "anonymous": false,
      "inputs": [
        {
          "indexed": true,
          "internalType": "address",
          "name": "farmer",
          "type": "address"
        },
        {
          "indexed": false,
          "internalType": "string",
          "name": "name",
          "type": "string"
        },
        {
          "indexed": false,
          "internalType": "string",
          "name": "location",
          "type": "string"
        }
      ],
      "name": "FarmerUpdated",
      "type": "event"
    },
    {
      "anonymous": false,
      "inputs": [
        {
          "indexed": true,
          "internalType": "address",
          "name": "farmer",
          "type": "address"
        },
        {
          "indexed": false,
          "internalType": "string",
          "name": "practiceName",
          "type": "string"
        },
        {
          "indexed": false,
          "internalType": "uint256",
          "name": "carbonReduction",
          "type": "uint256"
        },
        {
          "indexed": false,
          "internalType": "uint256",
          "name": "timestamp",
          "type": "uint256"
        }
      ],
      "name": "SustainablePracticeAdded",
      "type": "event"
    },
    {
      "inputs": [
        {
          "internalType": "address",
          "name": "",
          "type": "address"
        }
      ],
      "name": "farmers",
      "outputs": [
        {
          "internalType": "string",
          "name": "name",
          "type": "string"
        },
        {
          "internalType": "string",
          "name": "location",
          "type": "string"
        },
        {
          "internalType": "uint256",
          "name": "totalCarbonReduction",
          "type": "uint256"
        }
      ],
      "stateMutability": "view",
      "type": "function",
      "constant": true
    },
    {
      "inputs": [],
      "name": "owner",
      "outputs": [
        {
          "internalType": "address",
          "name": "",
          "type": "address"
        }
      ],
      "stateMutability": "view",
      "type": "function",
      "constant": true
    },
    {
      "inputs": [
        {
          "internalType": "string",
          "name": "_name",
          "type": "string"
        },
        {
          "internalType": "string",
          "name": "_location",
          "type": "string"
        }
      ],
      "name": "registerFarmer",
      "outputs": [],
      "stateMutability": "nonpayable",
      "type": "function"
    },
    {
      "inputs": [
        {
          "internalType": "string",
          "name": "_practiceName",
          "type": "string"
        },
        {
          "internalType": "uint256",
          "name": "_carbonReduction",
          "type": "uint256"
        }
      ],
      "name": "addSustainablePractice",
      "outputs": [],
      "stateMutability": "nonpayable",
      "type": "function"
    },
    {
      "inputs": [
        {
          "internalType": "address",
          "name": "_farmer",
          "type": "address"
        }
      ],
      "name": "getFarmerInfo",
      "outputs": [
        {
          "internalType": "string",
          "name": "",
          "type": "string"
        },
        {
          "internalType": "string",
          "name": "",
          "type": "string"
        },
        {
          "internalType": "uint256",
          "name": "",
          "type": "uint256"
        }
      ],
      "stateMutability": "view",
      "type": "function",
      "constant": true
    },
    {
      "inputs": [
        {
          "internalType": "address",
          "name": "_farmer",
          "type": "address"
        }
      ],
      "name": "getLatestSustainablePractice",
      "outputs": [
        {
          "internalType": "string",
          "name": "",
          "type": "string"
        },
        {
          "internalType": "uint256",
          "name": "",
          "type": "uint256"
        },
        {
          "internalType": "uint256",
          "name": "",
          "type": "uint256"
        }
      ],
      "stateMutability": "view",
      "type": "function",
      "constant": true
    }
  ],
  "bytecode": "0x608060405234801561000f575f80fd5b506110b68061001d5f395ff3fe608060405234801561000f575f80fd5b5060043610610060575f3560e01c80631cdbadc014610064578063314596b214610096578063401b2168146100b257806371993ac9146100e457806373bf8ac2146101005780638da5cb5b14610132575b5f80fd5b61007e6004803603810190610079919061080c565b610150565b60405161008d939291906108d9565b60405180910390f35b6100b060048036038101906100ab9190610a41565b6102bb565b005b6100cc60048036038101906100c7919061080c565b610373565b6040516100db93929190610ab7565b60405180910390f35b6100fe60048036038101906100f99190610b24565b6104a5565b005b61011a6004803603810190610115919061080c565b61060c565b60405161012993929190610ab7565b60405180910390f35b61013a61077e565b6040516101479190610b8d565b60405180910390f35b60605f805f60015f8673ffffffffffffffffffffffffffffffffffffffff1673ffffffffffffffffffffffffffffffffffffffff1681526020019081526020015f2090505f8160030180549050116101dd576040517f08c379a00000000000000000000000000000000000000000000000000000000081526004016101d490610c16565b60405180910390fd5b5f81600301600183600301805490506101f69190610c61565b8154811061020757610206610c94565b5b905f5260205f2090600302019050805f018160010154826002015482805461022e90610cee565b80601f016020809104026020016040519081016040528092919081815260200182805461025a90610cee565b80156102a55780601f1061027c576101008083540402835291602001916102a5565b820191905f5260205f20905b81548152906001019060200180831161028857829003601f168201915b5050505050925094509450945050509193909250565b5f60015f3373ffffffffffffffffffffffffffffffffffffffff1673ffffffffffffffffffffffffffffffffffffffff1681526020019081526020015f20905082815f01908161030b9190610ebb565b508181600101908161031d9190610ebb565b503373ffffffffffffffffffffffffffffffffffffffff167f48b810d61424f9980ee2a6d0d451039aad8fd83209c60c5bc68132027a8f84a08484604051610366929190610f8a565b60405180910390a2505050565b6001602052805f5260405f205f91509050805f01805461039290610cee565b80601f01602080910402602001604051908101604052809291908181526020018280546103be90610cee565b80156104095780601f106103e057610100808354040283529160200191610409565b820191905f5260205f20905b8154815290600101906020018083116103ec57829003601f168201915b50505050509080600101805461041e90610cee565b80601f016020809104026020016040519081016040528092919081815260200182805461044a90610cee565b80156104955780601f1061046c57610100808354040283529160200191610495565b820191905f5260205f20905b81548152906001019060200180831161047857829003601f168201915b5050505050908060020154905083565b5f81116104e7576040517f08c379a00000000000000000000000000000000000000000000000000000000081526004016104de9061102f565b60405180910390fd5b5f60015f3373ffffffffffffffffffffffffffffffffffffffff1673ffffffffffffffffffffffffffffffffffffffff1681526020019081526020015f2090505f60405180606001604052808581526020018481526020014281525090508160030181908060018154018082558091505060019003905f5260205f2090600302015f909190919091505f820151815f0190816105839190610ebb565b506020820151816001015560408201518160020155505082826002015f8282546105ad919061104d565b925050819055503373ffffffffffffffffffffffffffffffffffffffff167f9c9e1e70f2855cfce4cbb9fb48fcaf5f8aec87a3e0f362b4685e49661d2afe418585426040516105fe939291906108d9565b60405180910390a250505050565b6060805f8060015f8673ffffffffffffffffffffffffffffffffffffffff1673ffffffffffffffffffffffffffffffffffffffff1681526020019081526020015f209050805f0181600101826002015482805461066890610cee565b80601f016020809104026020016040519081016040528092919081815260200182805461069490610cee565b80156106df5780601f106106b6576101008083540402835291602001916106df565b820191905f5260205f20905b8154815290600101906020018083116106c257829003601f168201915b505050505092508180546106f290610cee565b80601f016020809104026020016040519081016040528092919081815260200182805461071e90610cee565b80156107695780601f1061074057610100808354040283529160200191610769565b820191905f5260205f20905b81548152906001019060200180831161074c57829003601f168201915b50505050509150935093509350509193909250565b5f8054906101000a900473ffffffffffffffffffffffffffffffffffffffff1681565b5f604051905090565b5f80fd5b5f80fd5b5f73ffffffffffffffffffffffffffffffffffffffff82169050919050565b5f6107db826107b2565b9050919050565b6107eb816107d1565b81146107f5575f80fd5b50565b5f81359050610806816107e2565b92915050565b5f60208284031215610821576108206107aa565b5b5f61082e848285016107f8565b91505092915050565b5f81519050919050565b5f82825260208201905092915050565b5f5b8381101561086e578082015181840152602081019050610853565b5f8484015250505050565b5f601f19601f8301169050919050565b5f61089382610837565b61089d8185610841565b93506108ad818560208601610851565b6108b681610879565b840191505092915050565b5f819050919050565b6108d3816108c1565b82525050565b5f6060820190508181035f8301526108f18186610889565b905061090060208301856108ca565b61090d60408301846108ca565b949350505050565b5f80fd5b5f80fd5b7f4e487b71000000000000000000000000000000000000000000000000000000005f52604160045260245ffd5b61095382610879565b810181811067ffffffffffffffff821117156109725761097161091d565b5b80604052505050565b5f6109846107a1565b9050610990828261094a565b919050565b5f67ffffffffffffffff8211156109af576109ae61091d565b5b6109b882610879565b9050602081019050919050565b828183375f83830152505050565b5f6109e56109e084610995565b61097b565b905082815260208101848484011115610a0157610a00610919565b5b610a0c8482856109c5565b509392505050565b5f82601f830112610a2857610a27610915565b5b8135610a388482602086016109d3565b91505092915050565b5f8060408385031215610a5757610a566107aa565b5b5f83013567ffffffffffffffff811115610a7457610a736107ae565b5b610a8085828601610a14565b925050602083013567ffffffffffffffff811115610aa157610aa06107ae565b5b610aad85828601610a14565b9150509250929050565b5f6060820190508181035f830152610acf8186610889565b90508181036020830152610ae38185610889565b9050610af260408301846108ca565b949350505050565b610b03816108c1565b8114610b0d575f80fd5b50565b5f81359050610b1e81610afa565b92915050565b5f8060408385031215610b3a57610b396107aa565b5b5f83013567ffffffffffffffff811115610b5757610b566107ae565b5b610b6385828601610a14565b9250506020610b7485828601610b10565b9150509250929050565b610b87816107d1565b82525050565b5f602082019050610ba05f830184610b7e565b92915050565b7f4e6f207375737461696e61626c6520707261637469636573207265636f7264655f8201527f6400000000000000000000000000000000000000000000000000000000000000602082015250565b5f610c00602183610841565b9150610c0b82610ba6565b604082019050919050565b5f6020820190508181035f830152610c2d81610bf4565b9050919050565b7f4e487b71000000000000000000000000000000000000000000000000000000005f52601160045260245ffd5b5f610c6b826108c1565b9150610c76836108c1565b9250828203905081811115610c8e57610c8d610c34565b5b92915050565b7f4e487b71000000000000000000000000000000000000000000000000000000005f52603260045260245ffd5b7f4e487b71000000000000000000000000000000000000000000000000000000005f52602260045260245ffd5b5f6002820490506001821680610d0557607f821691505b602082108103610d1857610d17610cc1565b5b50919050565b5f819050815f5260205f209050919050565b5f6020601f8301049050919050565b5f82821b905092915050565b5f60088302610d7a7fffffffffffffffffffffffffffffffffffffffffffffffffffffffffffffffff82610d3f565b610d848683610d3f565b95508019841693508086168417925050509392505050565b5f819050919050565b5f610dbf610dba610db5846108c1565b610d9c565b6108c1565b9050919050565b5f819050919050565b610dd883610da5565b610dec610de482610dc6565b848454610d4b565b825550505050565b5f90565b610e00610df4565b610e0b818484610dcf565b505050565b5b81811015610e2e57610e235f82610df8565b600181019050610e11565b5050565b601f821115610e7357610e4481610d1e565b610e4d84610d30565b81016020851015610e5c578190505b610e70610e6885610d30565b830182610e10565b50505b505050565b5f82821c905092915050565b5f610e935f1984600802610e78565b1980831691505092915050565b5f610eab8383610e84565b9150826002028217905092915050565b610ec482610837565b67ffffffffffffffff811115610edd57610edc61091d565b5b610ee78254610cee565b610ef2828285610e32565b5f60209050601f831160018114610f23575f8415610f11578287015190505b610f1b8582610ea0565b865550610f82565b601f198416610f3186610d1e565b5f5b82811015610f5857848901518255600182019150602085019450602081019050610f33565b86831015610f755784890151610f71601f891682610e84565b8355505b6001600288020188555050505b505050505050565b5f6040820190508181035f830152610fa28185610889565b90508181036020830152610fb68184610889565b90509392505050565b7f436172626f6e20726564756374696f6e206d75737420626520677265617465725f8201527f207468616e207a65726f00000000000000000000000000000000000000000000602082015250565b5f611019602a83610841565b915061102482610fbf565b604082019050919050565b5f6020820190508181035f8301526110468161100d565b9050919050565b5f611057826108c1565b9150611062836108c1565b925082820190508082111561107a57611079610c34565b5b9291505056fea2646970667358221220698e0bf33b9641c7c144d036518f1f2684fb034c2a68d72258bf11111bdcac9064736f6c63430008150033",
  "immutableReferences": {},
  "source": "// SPDX-License-Identifier: MIT\npragma solidity >=0.4.22 <0.9.0;\n\ncontract CarbonFootprintTracking {\n    address public owner;\n\n    // Struct to represent sustainable practices\n    struct SustainablePractice {\n        string practiceName;\n        uint256 carbonReduction; // in kilograms\n        uint256 timestamp;\n    }\n\n    // Struct to represent farmer information\n    struct Farmer {\n        string name;\n        string location;\n        uint256 totalCarbonReduction; // Total carbon reduction achieved by the farmer\n        SustainablePractice[] practices; // Array to store sustainable practices\n    }\n\n    // Mapping to store farmer information\n    mapping(address => Farmer) public farmers;\n\n    // Event to log each time a farmer adds a sustainable practice\n    event SustainablePracticeAdded(\n        address indexed farmer,\n        string practiceName,\n        uint256 carbonReduction,\n        uint256 timestamp\n    );\n\n    // Event to log each time a farmer's information is updated\n    event FarmerUpdated(address indexed farmer, string name, string location);\n\n    constructor() {\n        // owner = msg.sender;\n    }\n\n    // Modifier to ensure only the contract owner can perform certain actions\n    modifier onlyOwner() {\n        require(\n            msg.sender == owner,\n            \"Only the contract owner can call this function\"\n        );\n        _;\n    }\n\n    // Function for farmers to register/update their information\n    function registerFarmer(\n        string memory _name,\n        string memory _location\n    ) external {\n        Farmer storage farmer = farmers[msg.sender];\n\n        farmer.name = _name;\n        farmer.location = _location;\n\n        // Emit an event to log the farmer's information update\n        emit FarmerUpdated(msg.sender, _name, _location);\n    }\n\n    // Function for farmers to add sustainable practices\n    function addSustainablePractice(\n        string memory _practiceName,\n        uint256 _carbonReduction\n    ) external {\n        require(\n            _carbonReduction > 0,\n            \"Carbon reduction must be greater than zero\"\n        );\n\n        Farmer storage farmer = farmers[msg.sender];\n\n        SustainablePractice memory newPractice = SustainablePractice({\n            practiceName: _practiceName,\n            carbonReduction: _carbonReduction,\n            timestamp: block.timestamp\n        });\n\n        farmer.practices.push(newPractice);\n        farmer.totalCarbonReduction += _carbonReduction;\n\n        // Emit an event to log the addition of a sustainable practice\n        emit SustainablePracticeAdded(\n            msg.sender,\n            _practiceName,\n            _carbonReduction,\n            block.timestamp\n        );\n    }\n\n    // Function to get the farmer's information\n    function getFarmerInfo(\n        address _farmer\n    ) external view returns (string memory, string memory, uint256) {\n        Farmer storage farmer = farmers[_farmer];\n        return (farmer.name, farmer.location, farmer.totalCarbonReduction);\n    }\n\n    // Function to get the latest sustainable practice for a specific farmer\n    function getLatestSustainablePractice(\n        address _farmer\n    ) external view returns (string memory, uint256, uint256) {\n        Farmer storage farmer = farmers[_farmer];\n\n        require(\n            farmer.practices.length > 0,\n            \"No sustainable practices recorded\"\n        );\n\n        SustainablePractice storage latestPractice = farmer.practices[\n            farmer.practices.length - 1\n        ];\n\n        return (\n            latestPractice.practiceName,\n            latestPractice.carbonReduction,\n            latestPractice.timestamp\n        );\n    }\n}\n",
  "sourcePath": "C:\\Users\\Tiya Tizifa\\Documents\\CarbonFootprintTrackingApp\\contracts\\CarbonFootprintTracking.sol",
  "compiler": {
    "name": "solc",
    "version": "0.8.21+commit.d9974bed.Emscripten.clang"
  },
  "schemaVersion": "3.4.16",
  "updatedAt": "2023-12-20T13:26:12.981Z",
  "networkType": "ethereum",
  "devdoc": {
    "kind": "dev",
    "methods": {},
    "version": 1
  },
  "userdoc": {
    "kind": "user",
    "methods": {},
    "version": 1
  }
}